{"abi":[{"type":"receive","stateMutability":"payable"},{"type":"function","name":"addBalance","inputs":[],"outputs":[],"stateMutability":"payable"},{"type":"function","name":"withdraw","inputs":[{"name":"_amount","type":"uint256","internalType":"uint256"}],"outputs":[],"stateMutability":"nonpayable"},{"type":"error","name":"InvalidAmount","inputs":[]},{"type":"error","name":"NotDiamondOwner","inputs":[]},{"type":"error","name":"TransactionFailed","inputs":[]}],"bytecode":{"object":"0x6080604052348015600f57600080fd5b506102698061001f6000396000f3fe60806040526004361061002d5760003560e01c80632e1a7d4d14610039578063b163cc381461005b57600080fd5b3661003457005b600080fd5b34801561004557600080fd5b506100596100543660046101d8565b610063565b005b61005961017b565b7fc8fcad8db84d3cc18b4c41d551ea0ee66dd599cde068d998e57d5e09332c1320547fc8fcad8db84d3cc18b4c41d551ea0ee66dd599cde068d998e57d5e09332c131c906001600160a01b031633146100cf57604051630305808160e41b815260040160405180910390fd5b80600e01548211156100f45760405163162908e360e11b815260040160405180910390fd5b8181600e0160008282546101089190610207565b9091555050604051600090339084908381818185875af1925050503d806000811461014f576040519150601f19603f3d011682016040523d82523d6000602084013e610154565b606091505b5050905080610176576040516317f2c34560e31b815260040160405180910390fd5b505050565b7fc8fcad8db84d3cc18b4c41d551ea0ee66dd599cde068d998e57d5e09332c132a80547fc8fcad8db84d3cc18b4c41d551ea0ee66dd599cde068d998e57d5e09332c131c9134916000906101d0908490610220565b909155505050565b6000602082840312156101ea57600080fd5b5035919050565b634e487b7160e01b600052601160045260246000fd5b8181038181111561021a5761021a6101f1565b92915050565b8082018082111561021a5761021a6101f156fea26469706673582212203b0d8bc714eb245ab55fbcc19a20edc7585c1bd40a29d1ec8bb4bfd393cb851a64736f6c634300081c0033","linkReferences":{}},"methodIdentifiers":{"addBalance()":"b163cc38","withdraw(uint256)":"2e1a7d4d"},"id":5}