{"abi":[{"type":"function","name":"stakeNft","inputs":[{"name":"_nft","type":"address","internalType":"address"},{"name":"_tokenId","type":"uint256","internalType":"uint256"}],"outputs":[],"stateMutability":"nonpayable"},{"type":"function","name":"unstakeNft","inputs":[],"outputs":[],"stateMutability":"nonpayable"},{"type":"event","name":"NftStaked","inputs":[{"name":"onwer","type":"address","indexed":true,"internalType":"address"},{"name":"nft","type":"address","indexed":true,"internalType":"address"},{"name":"tokenId","type":"uint256","indexed":false,"internalType":"uint256"}],"anonymous":false},{"type":"event","name":"NftUnstaked","inputs":[{"name":"onwer","type":"address","indexed":true,"internalType":"address"},{"name":"nft","type":"address","indexed":true,"internalType":"address"},{"name":"tokenId","type":"uint256","indexed":false,"internalType":"uint256"}],"anonymous":false},{"type":"error","name":"AlreadyStaked","inputs":[]},{"type":"error","name":"CurrentlyOwing","inputs":[]},{"type":"error","name":"NoStake","inputs":[]},{"type":"error","name":"NoZeroAddress","inputs":[]},{"type":"error","name":"UnsupportedNFT","inputs":[]}],"bytecode":{"object":"0x6080604052348015600f57600080fd5b506104d08061001f6000396000f3fe608060405234801561001057600080fd5b50600436106100365760003560e01c80633660130b1461003b5780636e0d323514610050575b600080fd5b61004e610049366004610462565b610058565b005b61004e610215565b7fc8fcad8db84d3cc18b4c41d551ea0ee66dd599cde068d998e57d5e09332c131c6000610084846103fe565b9050806000036100a757604051636c191f7760e01b815260040160405180910390fd5b604051632142170760e11b8152336004820152306024820152604481018490526001600160a01b038516906342842e0e90606401600060405180830381600087803b1580156100f557600080fd5b505af1158015610109573d6000803e3d6000fd5b505050506101486040518060a0016040528060006001600160a01b03168152602001600081526020016000815260200160008152602001600081525090565b80516001600160a01b03161561017157604051630ae3514d60e01b815260040160405180910390fd5b6001600160a01b0385811680835260408084018581526020808601898152336000818152600d8b018452859020885181546001600160a01b031916981697909717875590516001870155915160028601556060860151600386015560808601516004909501949094559051878152919290917f3fd061956e650c90a0396511b1d6f91f031f6ad9e5a2990278c8233d179e1d70910160405180910390a35050505050565b3360009081527fc8fcad8db84d3cc18b4c41d551ea0ee66dd599cde068d998e57d5e09332c13296020908152604091829020825160a08101845281546001600160a01b031680825260018301549382018490526002830154948201949094526003820154606082015260049091015460808201527fc8fcad8db84d3cc18b4c41d551ea0ee66dd599cde068d998e57d5e09332c131c929091816102cb57604051636567cc4d60e11b815260040160405180910390fd5b6060830151156102ee57604051631b5f483f60e11b815260040160405180910390fd5b600080845260208085018281526040808701848152606088018581526080890186815233808852600d8c0190965295839020895181546001600160a01b0319166001600160a01b039182161782559451600182015591516002830155516003820155935160049485015551632142170760e11b815230938101939093526024830191909152604482018390528316906342842e0e90606401600060405180830381600087803b1580156103a057600080fd5b505af11580156103b4573d6000803e3d6000fd5b50506040518381526001600160a01b03851692503391507fcbc86dcecf0f92d6cec18bc60f5ec8999103e5c959789ac1968eb18f448f48269060200160405180910390a350505050565b60006001600160a01b0382166104275760405163ddbadd5f60e01b815260040160405180910390fd5b506001600160a01b031660009081527fc8fcad8db84d3cc18b4c41d551ea0ee66dd599cde068d998e57d5e09332c1328602052604090205490565b6000806040838503121561047557600080fd5b82356001600160a01b038116811461048c57600080fd5b94602093909301359350505056fea26469706673582212204d83a7d3720726ca3b752229cc01632ddd162ad0c1f169d0fa19238e200342ad64736f6c634300081c0033","linkReferences":{}},"methodIdentifiers":{"stakeNft(address,uint256)":"3660130b","unstakeNft()":"6e0d3235"},"id":6}