{"abi":[{"type":"receive","stateMutability":"payable"},{"type":"function","name":"getInterestRate","inputs":[],"outputs":[{"name":"","type":"uint8","internalType":"uint8"}],"stateMutability":"view"},{"type":"function","name":"getLoanableAmount","inputs":[],"outputs":[{"name":"","type":"uint256","internalType":"uint256"}],"stateMutability":"view"},{"type":"function","name":"payBack","inputs":[],"outputs":[],"stateMutability":"payable"},{"type":"function","name":"requestLoan","inputs":[{"name":"_amount","type":"uint256","internalType":"uint256"}],"outputs":[],"stateMutability":"nonpayable"},{"type":"event","name":"LoanGiven","inputs":[{"name":"borrower","type":"address","indexed":true,"internalType":"address"},{"name":"amount","type":"uint256","indexed":true,"internalType":"uint256"},{"name":"time","type":"uint256","indexed":true,"internalType":"uint256"}],"anonymous":false},{"type":"event","name":"LoanPaid","inputs":[{"name":"borrower","type":"address","indexed":true,"internalType":"address"},{"name":"amount","type":"uint256","indexed":true,"internalType":"uint256"},{"name":"time","type":"uint256","indexed":true,"internalType":"uint256"}],"anonymous":false},{"type":"error","name":"CurrentlyOwing","inputs":[]},{"type":"error","name":"InvalidAmount","inputs":[]},{"type":"error","name":"NoStake","inputs":[]},{"type":"error","name":"TransactionFailed","inputs":[]}],"bytecode":{"object":"0x6080604052348015600f57600080fd5b5061063a8061001f6000396000f3fe6080604052600436106100435760003560e01c8063019f64cc1461004f57806305f218e7146100595780635257b566146100815780638d5d3429146100c257600080fd5b3661004a57005b600080fd5b6100576100e2565b005b34801561006557600080fd5b5061006e61029d565b6040519081526020015b60405180910390f35b34801561008d57600080fd5b507fc8fcad8db84d3cc18b4c41d551ea0ee66dd599cde068d998e57d5e09332c13275460405160ff9091168152602001610078565b3480156100ce57600080fd5b506100576100dd366004610592565b61035a565b3360009081527fc8fcad8db84d3cc18b4c41d551ea0ee66dd599cde068d998e57d5e09332c132960209081526040808320815160a08101835281546001600160a01b0316815260018201549381019390935260028101549183019190915260038101546060830181905260049091015460808301527fc8fcad8db84d3cc18b4c41d551ea0ee66dd599cde068d998e57d5e09332c131c9281900361019957604051636567cc4d60e11b815260040160405180910390fd5b60008260800151426101ab91906105c1565b600b8501549091506000906101c39060ff16836105da565b6101cd90846105f1565b9050803410156101f05760405163162908e360e11b815260040160405180910390fd5b3485600e01600082825461020491906105f1565b90915550506000606085018181526080860182815233808452600d8901602090815260408086208a5181546001600160a01b0319166001600160a01b03909116178155918a01516001830155808a01516002830155935160038201559151600490920191909155905142923492917f3cbf239624821b66583d7719785585b7ce2210916c8e8bf0af6c62f34e49fcac9190a45050505050565b3360009081527fc8fcad8db84d3cc18b4c41d551ea0ee66dd599cde068d998e57d5e09332c132960209081526040808320815160a08101835281546001600160a01b031680825260018301549482019490945260028201549281018390526003820154606082015260049091015460808201527fc8fcad8db84d3cc18b4c41d551ea0ee66dd599cde068d998e57d5e09332c131c9290918161035257604051636567cc4d60e11b815260040160405180910390fd5b949350505050565b3360009081527fc8fcad8db84d3cc18b4c41d551ea0ee66dd599cde068d998e57d5e09332c13296020908152604091829020825160a08101845281546001600160a01b031680825260018301549382019390935260028201549381018490526003820154606082015260049091015460808201527fc8fcad8db84d3cc18b4c41d551ea0ee66dd599cde068d998e57d5e09332c131c929091908161041157604051636567cc4d60e11b815260040160405180910390fd5b808511156104325760405163162908e360e11b815260040160405180910390fd5b83600e01548511156104575760405163162908e360e11b815260040160405180910390fd5b60608301511561047a57604051631b5f483f60e11b815260040160405180910390fd5b426080840190815260608401868152336000908152600d870160209081526040808320885181546001600160a01b0319166001600160a01b039091161781559188015160018301558701516002820155915160038301559151600490910155600e850180548792906104ed9084906105c1565b9091555050604051600090339087908381818185875af1925050503d8060008114610534576040519150601f19603f3d011682016040523d82523d6000602084013e610539565b606091505b505090508061055b576040516317f2c34560e31b815260040160405180910390fd5b6040514290879033907fae7647bec8cc27aa50112bcdd9ac1c36d31058faa51535c44db81798978c7fc490600090a4505050505050565b6000602082840312156105a457600080fd5b5035919050565b634e487b7160e01b600052601160045260246000fd5b818103818111156105d4576105d46105ab565b92915050565b80820281158282048414176105d4576105d46105ab565b808201808211156105d4576105d46105ab56fea26469706673582212200201d120abd9021979be4cb1d32bfcf3cc3aa2009a954036e8b76c797318f9de64736f6c634300081c0033","linkReferences":{}},"methodIdentifiers":{"getInterestRate()":"5257b566","getLoanableAmount()":"05f218e7","payBack()":"019f64cc","requestLoan(uint256)":"8d5d3429"},"id":4}